{
  "_format": "hh-sol-artifact-1",
  "contractName": "AdvancedCollectible",
  "sourceName": "contracts/NFT/AdvancedCollectible.sol",
  "abi": [
    {
      "inputs": [
        {
          "internalType": "address",
          "name": "_VRFCoordinator",
          "type": "address"
        },
        {
          "internalType": "address",
          "name": "_LinkToken",
          "type": "address"
        },
        {
          "internalType": "bytes32",
          "name": "_keyhash",
          "type": "bytes32"
        },
        {
          "internalType": "uint256",
          "name": "_fee",
          "type": "uint256"
        }
      ],
      "stateMutability": "nonpayable",
      "type": "constructor"
    },
    {
      "anonymous": false,
      "inputs": [
        {
          "indexed": true,
          "internalType": "address",
          "name": "owner",
          "type": "address"
        },
        {
          "indexed": true,
          "internalType": "address",
          "name": "approved",
          "type": "address"
        },
        {
          "indexed": true,
          "internalType": "uint256",
          "name": "tokenId",
          "type": "uint256"
        }
      ],
      "name": "Approval",
      "type": "event"
    },
    {
      "anonymous": false,
      "inputs": [
        {
          "indexed": true,
          "internalType": "address",
          "name": "owner",
          "type": "address"
        },
        {
          "indexed": true,
          "internalType": "address",
          "name": "operator",
          "type": "address"
        },
        {
          "indexed": false,
          "internalType": "bool",
          "name": "approved",
          "type": "bool"
        }
      ],
      "name": "ApprovalForAll",
      "type": "event"
    },
    {
      "anonymous": false,
      "inputs": [
        {
          "indexed": true,
          "internalType": "address",
          "name": "from",
          "type": "address"
        },
        {
          "indexed": true,
          "internalType": "address",
          "name": "to",
          "type": "address"
        },
        {
          "indexed": true,
          "internalType": "uint256",
          "name": "tokenId",
          "type": "uint256"
        }
      ],
      "name": "Transfer",
      "type": "event"
    },
    {
      "anonymous": false,
      "inputs": [
        {
          "indexed": true,
          "internalType": "bytes32",
          "name": "requestId",
          "type": "bytes32"
        },
        {
          "indexed": false,
          "internalType": "uint256",
          "name": "tokenId",
          "type": "uint256"
        },
        {
          "indexed": false,
          "internalType": "enum AdvancedCollectible.Breed",
          "name": "breed",
          "type": "uint8"
        }
      ],
      "name": "mintCollectible",
      "type": "event"
    },
    {
      "anonymous": false,
      "inputs": [
        {
          "indexed": true,
          "internalType": "address",
          "name": "minter",
          "type": "address"
        },
        {
          "indexed": true,
          "internalType": "bytes32",
          "name": "requestId",
          "type": "bytes32"
        }
      ],
      "name": "requestedCollectible",
      "type": "event"
    },
    {
      "inputs": [
        {
          "internalType": "string",
          "name": "tokenURI",
          "type": "string"
        }
      ],
      "name": "CreateDoggies",
      "outputs": [
        {
          "internalType": "bytes32",
          "name": "",
          "type": "bytes32"
        }
      ],
      "stateMutability": "nonpayable",
      "type": "function"
    },
    {
      "inputs": [
        {
          "internalType": "address",
          "name": "to",
          "type": "address"
        },
        {
          "internalType": "uint256",
          "name": "tokenId",
          "type": "uint256"
        }
      ],
      "name": "approve",
      "outputs": [],
      "stateMutability": "nonpayable",
      "type": "function"
    },
    {
      "inputs": [
        {
          "internalType": "address",
          "name": "owner",
          "type": "address"
        }
      ],
      "name": "balanceOf",
      "outputs": [
        {
          "internalType": "uint256",
          "name": "",
          "type": "uint256"
        }
      ],
      "stateMutability": "view",
      "type": "function"
    },
    {
      "inputs": [],
      "name": "fee",
      "outputs": [
        {
          "internalType": "uint256",
          "name": "",
          "type": "uint256"
        }
      ],
      "stateMutability": "view",
      "type": "function"
    },
    {
      "inputs": [
        {
          "internalType": "uint256",
          "name": "tokenId",
          "type": "uint256"
        }
      ],
      "name": "getApproved",
      "outputs": [
        {
          "internalType": "address",
          "name": "",
          "type": "address"
        }
      ],
      "stateMutability": "view",
      "type": "function"
    },
    {
      "inputs": [
        {
          "internalType": "address",
          "name": "owner",
          "type": "address"
        },
        {
          "internalType": "address",
          "name": "operator",
          "type": "address"
        }
      ],
      "name": "isApprovedForAll",
      "outputs": [
        {
          "internalType": "bool",
          "name": "",
          "type": "bool"
        }
      ],
      "stateMutability": "view",
      "type": "function"
    },
    {
      "inputs": [],
      "name": "name",
      "outputs": [
        {
          "internalType": "string",
          "name": "",
          "type": "string"
        }
      ],
      "stateMutability": "view",
      "type": "function"
    },
    {
      "inputs": [
        {
          "internalType": "uint256",
          "name": "tokenId",
          "type": "uint256"
        }
      ],
      "name": "ownerOf",
      "outputs": [
        {
          "internalType": "address",
          "name": "",
          "type": "address"
        }
      ],
      "stateMutability": "view",
      "type": "function"
    },
    {
      "inputs": [
        {
          "internalType": "bytes32",
          "name": "requestId",
          "type": "bytes32"
        },
        {
          "internalType": "uint256",
          "name": "randomness",
          "type": "uint256"
        }
      ],
      "name": "rawFulfillRandomness",
      "outputs": [],
      "stateMutability": "nonpayable",
      "type": "function"
    },
    {
      "inputs": [
        {
          "internalType": "bytes32",
          "name": "",
          "type": "bytes32"
        }
      ],
      "name": "requestIdToSender",
      "outputs": [
        {
          "internalType": "address",
          "name": "",
          "type": "address"
        }
      ],
      "stateMutability": "view",
      "type": "function"
    },
    {
      "inputs": [
        {
          "internalType": "bytes32",
          "name": "",
          "type": "bytes32"
        }
      ],
      "name": "requestIdToTokenId",
      "outputs": [
        {
          "internalType": "uint256",
          "name": "",
          "type": "uint256"
        }
      ],
      "stateMutability": "view",
      "type": "function"
    },
    {
      "inputs": [
        {
          "internalType": "address",
          "name": "from",
          "type": "address"
        },
        {
          "internalType": "address",
          "name": "to",
          "type": "address"
        },
        {
          "internalType": "uint256",
          "name": "tokenId",
          "type": "uint256"
        }
      ],
      "name": "safeTransferFrom",
      "outputs": [],
      "stateMutability": "nonpayable",
      "type": "function"
    },
    {
      "inputs": [
        {
          "internalType": "address",
          "name": "from",
          "type": "address"
        },
        {
          "internalType": "address",
          "name": "to",
          "type": "address"
        },
        {
          "internalType": "uint256",
          "name": "tokenId",
          "type": "uint256"
        },
        {
          "internalType": "bytes",
          "name": "_data",
          "type": "bytes"
        }
      ],
      "name": "safeTransferFrom",
      "outputs": [],
      "stateMutability": "nonpayable",
      "type": "function"
    },
    {
      "inputs": [
        {
          "internalType": "address",
          "name": "operator",
          "type": "address"
        },
        {
          "internalType": "bool",
          "name": "approved",
          "type": "bool"
        }
      ],
      "name": "setApprovalForAll",
      "outputs": [],
      "stateMutability": "nonpayable",
      "type": "function"
    },
    {
      "inputs": [
        {
          "internalType": "uint256",
          "name": "tokenId_",
          "type": "uint256"
        },
        {
          "internalType": "string",
          "name": "tokenURI_",
          "type": "string"
        }
      ],
      "name": "setTokenURI",
      "outputs": [],
      "stateMutability": "nonpayable",
      "type": "function"
    },
    {
      "inputs": [
        {
          "internalType": "bytes4",
          "name": "interfaceId",
          "type": "bytes4"
        }
      ],
      "name": "supportsInterface",
      "outputs": [
        {
          "internalType": "bool",
          "name": "",
          "type": "bool"
        }
      ],
      "stateMutability": "view",
      "type": "function"
    },
    {
      "inputs": [],
      "name": "symbol",
      "outputs": [
        {
          "internalType": "string",
          "name": "",
          "type": "string"
        }
      ],
      "stateMutability": "view",
      "type": "function"
    },
    {
      "inputs": [],
      "name": "tokenCounter",
      "outputs": [
        {
          "internalType": "uint256",
          "name": "",
          "type": "uint256"
        }
      ],
      "stateMutability": "view",
      "type": "function"
    },
    {
      "inputs": [
        {
          "internalType": "uint256",
          "name": "",
          "type": "uint256"
        }
      ],
      "name": "tokenIdToBreed",
      "outputs": [
        {
          "internalType": "enum AdvancedCollectible.Breed",
          "name": "",
          "type": "uint8"
        }
      ],
      "stateMutability": "view",
      "type": "function"
    },
    {
      "inputs": [
        {
          "internalType": "uint256",
          "name": "tokenId",
          "type": "uint256"
        }
      ],
      "name": "tokenURI",
      "outputs": [
        {
          "internalType": "string",
          "name": "",
          "type": "string"
        }
      ],
      "stateMutability": "view",
      "type": "function"
    },
    {
      "inputs": [
        {
          "internalType": "address",
          "name": "from",
          "type": "address"
        },
        {
          "internalType": "address",
          "name": "to",
          "type": "address"
        },
        {
          "internalType": "uint256",
          "name": "tokenId",
          "type": "uint256"
        }
      ],
      "name": "transferFrom",
      "outputs": [],
      "stateMutability": "nonpayable",
      "type": "function"
    }
  ],
  "bytecode": "0x60c06040523480156200001157600080fd5b50604051620022893803806200228983398101604081905262000034916200017f565b6040805180820182526007815266446f676769657360c81b602080830191825283518085019094526003845262444f4760e81b908401526001600160a01b0380881660a052861660805281519192916200009191600191620000bc565b508051620000a7906002906020840190620000bc565b505050600991909155600a5550620002049050565b828054620000ca90620001c7565b90600052602060002090601f016020900481019282620000ee576000855562000139565b82601f106200010957805160ff191683800117855562000139565b8280016001018555821562000139579182015b82811115620001395782518255916020019190600101906200011c565b50620001479291506200014b565b5090565b5b808211156200014757600081556001016200014c565b80516001600160a01b03811681146200017a57600080fd5b919050565b600080600080608085870312156200019657600080fd5b620001a18562000162565b9350620001b16020860162000162565b6040860151606090960151949790965092505050565b600181811c90821680620001dc57607f821691505b60208210811415620001fe57634e487b7160e01b600052602260045260246000fd5b50919050565b60805160a051612058620002316000396000818161090a01526114490152600061141a01526120586000f3fe608060405234801561001057600080fd5b50600436106101775760003560e01c806370a08231116100d8578063c87b56dd1161008c578063ddca3f4311610066578063ddca3f431461033c578063e985e9c514610345578063ed4046ac1461038157600080fd5b8063c87b56dd146102f0578063cbbc3c2814610303578063d082e3811461033357600080fd5b806395d89b41116100bd57806395d89b41146102c2578063a22cb465146102ca578063b88d4fde146102dd57600080fd5b806370a082311461029c57806394985ddd146102af57600080fd5b8063219c0eee1161012f57806323b872dd1161011457806323b872dd1461026357806342842e0e146102765780636352211e1461028957600080fd5b8063219c0eee1461020c57806322881f881461023557600080fd5b8063081812fc11610160578063081812fc146101b9578063095ea7b3146101e4578063162094c4146101f957600080fd5b806301ffc9a71461017c57806306fdde03146101a4575b600080fd5b61018f61018a366004611a87565b610394565b60405190151581526020015b60405180910390f35b6101ac610431565b60405161019b9190611afc565b6101cc6101c7366004611b0f565b6104c3565b6040516001600160a01b03909116815260200161019b565b6101f76101f2366004611b44565b61055d565b005b6101f7610207366004611c1a565b6106ad565b6101cc61021a366004611b0f565b600d602052600090815260409020546001600160a01b031681565b610255610243366004611b0f565b600f6020526000908152604090205481565b60405190815260200161019b565b6101f7610271366004611c61565b610738565b6101f7610284366004611c61565b6107bf565b6101cc610297366004611b0f565b6107da565b6102556102aa366004611c9d565b610865565b6101f76102bd366004611cb8565b6108ff565b6101ac610981565b6101f76102d8366004611ce8565b610990565b6101f76102eb366004611d1f565b61099b565b6101ac6102fe366004611b0f565b610a28565b610326610311366004611b0f565b600e6020526000908152604090205460ff1681565b60405161019b9190611dd3565b610255600b5481565b610255600a5481565b61018f610353366004611de1565b6001600160a01b03918216600090815260066020908152604080832093909416825291909152205460ff1690565b61025561038f366004611e14565b610bbb565b60006001600160e01b031982167f80ac58cd0000000000000000000000000000000000000000000000000000000014806103f757506001600160e01b031982167f5b5e139f00000000000000000000000000000000000000000000000000000000145b8061042b57507f01ffc9a7000000000000000000000000000000000000000000000000000000006001600160e01b03198316145b92915050565b60606001805461044090611e49565b80601f016020809104026020016040519081016040528092919081815260200182805461046c90611e49565b80156104b95780601f1061048e576101008083540402835291602001916104b9565b820191906000526020600020905b81548152906001019060200180831161049c57829003601f168201915b5050505050905090565b6000818152600360205260408120546001600160a01b03166105415760405162461bcd60e51b815260206004820152602c60248201527f4552433732313a20617070726f76656420717565727920666f72206e6f6e657860448201526b34b9ba32b73a103a37b5b2b760a11b60648201526084015b60405180910390fd5b506000908152600560205260409020546001600160a01b031690565b6000610568826107da565b9050806001600160a01b0316836001600160a01b031614156105f25760405162461bcd60e51b815260206004820152602160248201527f4552433732313a20617070726f76616c20746f2063757272656e74206f776e6560448201527f72000000000000000000000000000000000000000000000000000000000000006064820152608401610538565b336001600160a01b038216148061062c57506001600160a01b038116600090815260066020908152604080832033845290915290205460ff165b61069e5760405162461bcd60e51b815260206004820152603860248201527f4552433732313a20617070726f76652063616c6c6572206973206e6f74206f7760448201527f6e6572206e6f7220617070726f76656420666f7220616c6c00000000000000006064820152608401610538565b6106a88383610c48565b505050565b6106b8335b83610cc3565b61072a5760405162461bcd60e51b815260206004820152603260248201527f4552433732313a207472616e736665722063616c6c6572206973206e6f74206f60448201527f776e6572206e6f7220617070726f7665642e00000000000000000000000000006064820152608401610538565b6107348282610db6565b5050565b6107423382610cc3565b6107b45760405162461bcd60e51b815260206004820152603160248201527f4552433732313a207472616e736665722063616c6c6572206973206e6f74206f60448201527f776e6572206e6f7220617070726f7665640000000000000000000000000000006064820152608401610538565b6106a8838383610e5f565b6106a88383836040518060200160405280600081525061099b565b6000818152600360205260408120546001600160a01b03168061042b5760405162461bcd60e51b815260206004820152602960248201527f4552433732313a206f776e657220717565727920666f72206e6f6e657869737460448201527f656e7420746f6b656e00000000000000000000000000000000000000000000006064820152608401610538565b60006001600160a01b0382166108e35760405162461bcd60e51b815260206004820152602a60248201527f4552433732313a2062616c616e636520717565727920666f7220746865207a6560448201527f726f2061646472657373000000000000000000000000000000000000000000006064820152608401610538565b506001600160a01b031660009081526004602052604090205490565b336001600160a01b037f000000000000000000000000000000000000000000000000000000000000000016146109775760405162461bcd60e51b815260206004820152601f60248201527f4f6e6c7920565246436f6f7264696e61746f722063616e2066756c66696c6c006044820152606401610538565b6107348282611039565b60606002805461044090611e49565b6107343383836111d3565b6109a4336106b2565b610a165760405162461bcd60e51b815260206004820152603160248201527f4552433732313a207472616e736665722063616c6c6572206973206e6f74206f60448201527f776e6572206e6f7220617070726f7665640000000000000000000000000000006064820152608401610538565b610a22848484846112a2565b50505050565b6000818152600360205260409020546060906001600160a01b0316610ab55760405162461bcd60e51b815260206004820152603160248201527f45524337323155524953746f726167653a2055524920717565727920666f722060448201527f6e6f6e6578697374656e7420746f6b656e0000000000000000000000000000006064820152608401610538565b60008281526007602052604081208054610ace90611e49565b80601f0160208091040260200160405190810160405280929190818152602001828054610afa90611e49565b8015610b475780601f10610b1c57610100808354040283529160200191610b47565b820191906000526020600020905b815481529060010190602001808311610b2a57829003601f168201915b505050505090506000610b6560408051602081019091526000815290565b9050805160001415610b78575092915050565b815115610baa578082604051602001610b92929190611e84565b60405160208183030381529060405292505050919050565b610bb384611320565b949350505050565b600080610bcc600954600a54611416565b6000818152600d60209081526040808320805473ffffffffffffffffffffffffffffffffffffffff191633179055600c82529091208551929350610c149290918601906119d5565b50604051819033907fe7449ee7bc91a97e38b1179b4c2fe513c3024f4daf863985bcfd5f8d7e6aa44a90600090a392915050565b6000818152600560205260409020805473ffffffffffffffffffffffffffffffffffffffff19166001600160a01b0384169081179091558190610c8a826107da565b6001600160a01b03167f8c5be1e5ebec7d5bd14f71427d1e84f3dd0314c0f7b2291e5b200ac8c7c3b92560405160405180910390a45050565b6000818152600360205260408120546001600160a01b0316610d3c5760405162461bcd60e51b815260206004820152602c60248201527f4552433732313a206f70657261746f7220717565727920666f72206e6f6e657860448201526b34b9ba32b73a103a37b5b2b760a11b6064820152608401610538565b6000610d47836107da565b9050806001600160a01b0316846001600160a01b03161480610d825750836001600160a01b0316610d77846104c3565b6001600160a01b0316145b80610bb357506001600160a01b0380821660009081526006602090815260408083209388168352929052205460ff16610bb3565b6000828152600360205260409020546001600160a01b0316610e405760405162461bcd60e51b815260206004820152602e60248201527f45524337323155524953746f726167653a2055524920736574206f66206e6f6e60448201527f6578697374656e7420746f6b656e0000000000000000000000000000000000006064820152608401610538565b600082815260076020908152604090912082516106a8928401906119d5565b826001600160a01b0316610e72826107da565b6001600160a01b031614610eee5760405162461bcd60e51b815260206004820152602560248201527f4552433732313a207472616e736665722066726f6d20696e636f72726563742060448201527f6f776e65720000000000000000000000000000000000000000000000000000006064820152608401610538565b6001600160a01b038216610f695760405162461bcd60e51b8152602060048201526024808201527f4552433732313a207472616e7366657220746f20746865207a65726f2061646460448201527f72657373000000000000000000000000000000000000000000000000000000006064820152608401610538565b610f74600082610c48565b6001600160a01b0383166000908152600460205260408120805460019290610f9d908490611ec9565b90915550506001600160a01b0382166000908152600460205260408120805460019290610fcb908490611ee0565b9091555050600081815260036020526040808220805473ffffffffffffffffffffffffffffffffffffffff19166001600160a01b0386811691821790925591518493918716917fddf252ad1be2c89b69c2b068fc378daa952ba7f163c4a11628f55a4df523b3ef91a4505050565b6000828152600d6020908152604080832054600c909252822080546001600160a01b03909216929161106a90611e49565b80601f016020809104026020016040519081016040528092919081815260200182805461109690611e49565b80156110e35780601f106110b8576101008083540402835291602001916110e3565b820191906000526020600020905b8154815290600101906020018083116110c657829003601f168201915b5050505050905061110682600b546040518060200160405280600081525061158d565b611112600b5482610db6565b600061111f600385611f0e565b600281111561113057611130611d9b565b600b546000908152600e602052604090208054919250829160ff1916600183600281111561116057611160611d9b565b0217905550600b546000868152600f6020526040908190208290555186917fffa037f03934796e24eef3536073dff3518b7dfbc66d8dc751836e2451265b2b916111ac91908590611f22565b60405180910390a26001600b60008282546111c79190611ee0565b90915550505050505050565b816001600160a01b0316836001600160a01b031614156112355760405162461bcd60e51b815260206004820152601960248201527f4552433732313a20617070726f766520746f2063616c6c6572000000000000006044820152606401610538565b6001600160a01b03838116600081815260066020908152604080832094871680845294825291829020805460ff191686151590811790915591519182527f17307eab39ab6107e8899845ad3d59bd9653f200f220920489ca2b5937696c31910160405180910390a3505050565b6112ad848484610e5f565b6112b98484848461160b565b610a225760405162461bcd60e51b815260206004820152603260248201527f4552433732313a207472616e7366657220746f206e6f6e20455243373231526560448201527131b2b4bb32b91034b6b83632b6b2b73a32b960711b6064820152608401610538565b6000818152600360205260409020546060906001600160a01b03166113ad5760405162461bcd60e51b815260206004820152602f60248201527f4552433732314d657461646174613a2055524920717565727920666f72206e6f60448201527f6e6578697374656e7420746f6b656e00000000000000000000000000000000006064820152608401610538565b60006113c460408051602081019091526000815290565b905060008151116113e4576040518060200160405280600081525061140f565b806113ee84611754565b6040516020016113ff929190611e84565b6040516020818303038152906040525b9392505050565b60007f00000000000000000000000000000000000000000000000000000000000000006001600160a01b0316634000aea07f000000000000000000000000000000000000000000000000000000000000000084866000604051602001611486929190918252602082015260400190565b6040516020818303038152906040526040518463ffffffff1660e01b81526004016114b393929190611f36565b6020604051808303816000875af11580156114d2573d6000803e3d6000fd5b505050506040513d601f19601f820116820180604052508101906114f69190611f67565b5060008381526020818152604080832054815180840188905280830185905230606082015260808082018390528351808303909101815260a090910190925281519183019190912086845292909152611550906001611ee0565b6000858152602081815260409182902092909255805180830187905280820184905281518082038301815260609091019091528051910120610bb3565b6115978383611886565b6115a4600084848461160b565b6106a85760405162461bcd60e51b815260206004820152603260248201527f4552433732313a207472616e7366657220746f206e6f6e20455243373231526560448201527131b2b4bb32b91034b6b83632b6b2b73a32b960711b6064820152608401610538565b60006001600160a01b0384163b1561174957604051630a85bd0160e11b81526001600160a01b0385169063150b7a029061164f903390899088908890600401611f84565b6020604051808303816000875af192505050801561168a575060408051601f3d908101601f1916820190925261168791810190611fc0565b60015b61172f573d8080156116b8576040519150601f19603f3d011682016040523d82523d6000602084013e6116bd565b606091505b5080516117275760405162461bcd60e51b815260206004820152603260248201527f4552433732313a207472616e7366657220746f206e6f6e20455243373231526560448201527131b2b4bb32b91034b6b83632b6b2b73a32b960711b6064820152608401610538565b805181602001fd5b6001600160e01b031916630a85bd0160e11b149050610bb3565b506001949350505050565b60608161179457505060408051808201909152600181527f3000000000000000000000000000000000000000000000000000000000000000602082015290565b8160005b81156117be57806117a881611fdd565b91506117b79050600a83611ff8565b9150611798565b60008167ffffffffffffffff8111156117d9576117d9611b6e565b6040519080825280601f01601f191660200182016040528015611803576020820181803683370190505b5090505b8415610bb357611818600183611ec9565b9150611825600a86611f0e565b611830906030611ee0565b60f81b8183815181106118455761184561200c565b60200101907effffffffffffffffffffffffffffffffffffffffffffffffffffffffffffff1916908160001a90535061187f600a86611ff8565b9450611807565b6001600160a01b0382166118dc5760405162461bcd60e51b815260206004820181905260248201527f4552433732313a206d696e7420746f20746865207a65726f20616464726573736044820152606401610538565b6000818152600360205260409020546001600160a01b0316156119415760405162461bcd60e51b815260206004820152601c60248201527f4552433732313a20746f6b656e20616c7265616479206d696e746564000000006044820152606401610538565b6001600160a01b038216600090815260046020526040812080546001929061196a908490611ee0565b9091555050600081815260036020526040808220805473ffffffffffffffffffffffffffffffffffffffff19166001600160a01b03861690811790915590518392907fddf252ad1be2c89b69c2b068fc378daa952ba7f163c4a11628f55a4df523b3ef908290a45050565b8280546119e190611e49565b90600052602060002090601f016020900481019282611a035760008555611a49565b82601f10611a1c57805160ff1916838001178555611a49565b82800160010185558215611a49579182015b82811115611a49578251825591602001919060010190611a2e565b50611a55929150611a59565b5090565b5b80821115611a555760008155600101611a5a565b6001600160e01b031981168114611a8457600080fd5b50565b600060208284031215611a9957600080fd5b813561140f81611a6e565b60005b83811015611abf578181015183820152602001611aa7565b83811115610a225750506000910152565b60008151808452611ae8816020860160208601611aa4565b601f01601f19169290920160200192915050565b60208152600061140f6020830184611ad0565b600060208284031215611b2157600080fd5b5035919050565b80356001600160a01b0381168114611b3f57600080fd5b919050565b60008060408385031215611b5757600080fd5b611b6083611b28565b946020939093013593505050565b634e487b7160e01b600052604160045260246000fd5b600067ffffffffffffffff80841115611b9f57611b9f611b6e565b604051601f8501601f19908116603f01168101908282118183101715611bc757611bc7611b6e565b81604052809350858152868686011115611be057600080fd5b858560208301376000602087830101525050509392505050565b600082601f830112611c0b57600080fd5b61140f83833560208501611b84565b60008060408385031215611c2d57600080fd5b82359150602083013567ffffffffffffffff811115611c4b57600080fd5b611c5785828601611bfa565b9150509250929050565b600080600060608486031215611c7657600080fd5b611c7f84611b28565b9250611c8d60208501611b28565b9150604084013590509250925092565b600060208284031215611caf57600080fd5b61140f82611b28565b60008060408385031215611ccb57600080fd5b50508035926020909101359150565b8015158114611a8457600080fd5b60008060408385031215611cfb57600080fd5b611d0483611b28565b91506020830135611d1481611cda565b809150509250929050565b60008060008060808587031215611d3557600080fd5b611d3e85611b28565b9350611d4c60208601611b28565b925060408501359150606085013567ffffffffffffffff811115611d6f57600080fd5b8501601f81018713611d8057600080fd5b611d8f87823560208401611b84565b91505092959194509250565b634e487b7160e01b600052602160045260246000fd5b60038110611dcf57634e487b7160e01b600052602160045260246000fd5b9052565b6020810161042b8284611db1565b60008060408385031215611df457600080fd5b611dfd83611b28565b9150611e0b60208401611b28565b90509250929050565b600060208284031215611e2657600080fd5b813567ffffffffffffffff811115611e3d57600080fd5b610bb384828501611bfa565b600181811c90821680611e5d57607f821691505b60208210811415611e7e57634e487b7160e01b600052602260045260246000fd5b50919050565b60008351611e96818460208801611aa4565b835190830190611eaa818360208801611aa4565b01949350505050565b634e487b7160e01b600052601160045260246000fd5b600082821015611edb57611edb611eb3565b500390565b60008219821115611ef357611ef3611eb3565b500190565b634e487b7160e01b600052601260045260246000fd5b600082611f1d57611f1d611ef8565b500690565b8281526040810161140f6020830184611db1565b6001600160a01b0384168152826020820152606060408201526000611f5e6060830184611ad0565b95945050505050565b600060208284031215611f7957600080fd5b815161140f81611cda565b60006001600160a01b03808716835280861660208401525083604083015260806060830152611fb66080830184611ad0565b9695505050505050565b600060208284031215611fd257600080fd5b815161140f81611a6e565b6000600019821415611ff157611ff1611eb3565b5060010190565b60008261200757612007611ef8565b500490565b634e487b7160e01b600052603260045260246000fdfea2646970667358221220f739532a010aae4540c4c6b8d6de14471bd1ce7308db6c05e1b90b77403ca43764736f6c634300080a0033",
  "linkReferences": {},
  "deployedLinkReferences": {}
}