{
  "_format": "hh-sol-artifact-1",
  "contractName": "InterestModel",
  "sourceName": "contracts/InterestModel.sol",
  "abi": [
    {
      "anonymous": false,
      "inputs": [
        {
          "indexed": true,
          "internalType": "address",
          "name": "previousOwner",
          "type": "address"
        },
        {
          "indexed": true,
          "internalType": "address",
          "name": "newOwner",
          "type": "address"
        }
      ],
      "name": "OwnershipTransferred",
      "type": "event"
    },
    {
      "inputs": [
        {
          "internalType": "address",
          "name": "borrower",
          "type": "address"
        }
      ],
      "name": "getAmountBorrowed",
      "outputs": [
        {
          "internalType": "uint256",
          "name": "amountBorrowed",
          "type": "uint256"
        }
      ],
      "stateMutability": "view",
      "type": "function"
    },
    {
      "inputs": [],
      "name": "getAmountInvested",
      "outputs": [
        {
          "internalType": "uint256",
          "name": "amountInvested",
          "type": "uint256"
        }
      ],
      "stateMutability": "view",
      "type": "function"
    },
    {
      "inputs": [
        {
          "internalType": "address",
          "name": "borrower",
          "type": "address"
        }
      ],
      "name": "getBorrowedRepayAmount",
      "outputs": [
        {
          "internalType": "uint256",
          "name": "repayAmount",
          "type": "uint256"
        }
      ],
      "stateMutability": "view",
      "type": "function"
    },
    {
      "inputs": [],
      "name": "owner",
      "outputs": [
        {
          "internalType": "address",
          "name": "",
          "type": "address"
        }
      ],
      "stateMutability": "view",
      "type": "function"
    },
    {
      "inputs": [],
      "name": "renounceOwnership",
      "outputs": [],
      "stateMutability": "nonpayable",
      "type": "function"
    },
    {
      "inputs": [
        {
          "internalType": "uint8",
          "name": "amount",
          "type": "uint8"
        }
      ],
      "name": "setCurrentBorrowInterestRatePerBlock",
      "outputs": [],
      "stateMutability": "nonpayable",
      "type": "function"
    },
    {
      "inputs": [
        {
          "internalType": "uint8",
          "name": "amount",
          "type": "uint8"
        }
      ],
      "name": "setCurrentInterestRatePerBlock",
      "outputs": [],
      "stateMutability": "nonpayable",
      "type": "function"
    },
    {
      "inputs": [],
      "name": "totalAmountBorrowed",
      "outputs": [
        {
          "internalType": "uint256",
          "name": "",
          "type": "uint256"
        }
      ],
      "stateMutability": "view",
      "type": "function"
    },
    {
      "inputs": [],
      "name": "totalAmountInvested",
      "outputs": [
        {
          "internalType": "uint256",
          "name": "",
          "type": "uint256"
        }
      ],
      "stateMutability": "view",
      "type": "function"
    },
    {
      "inputs": [],
      "name": "totalAmountInvestedInterest",
      "outputs": [
        {
          "internalType": "uint256",
          "name": "",
          "type": "uint256"
        }
      ],
      "stateMutability": "view",
      "type": "function"
    },
    {
      "inputs": [],
      "name": "totalBorrowedInterest",
      "outputs": [
        {
          "internalType": "uint256",
          "name": "",
          "type": "uint256"
        }
      ],
      "stateMutability": "view",
      "type": "function"
    },
    {
      "inputs": [
        {
          "internalType": "address",
          "name": "newOwner",
          "type": "address"
        }
      ],
      "name": "transferOwnership",
      "outputs": [],
      "stateMutability": "nonpayable",
      "type": "function"
    },
    {
      "inputs": [],
      "name": "viewAccruedTokensAmount",
      "outputs": [
        {
          "internalType": "uint256",
          "name": "accruedTokenAmount",
          "type": "uint256"
        }
      ],
      "stateMutability": "view",
      "type": "function"
    },
    {
      "inputs": [
        {
          "internalType": "address",
          "name": "borrower",
          "type": "address"
        }
      ],
      "name": "viewBorrowAccruedTokensAmount",
      "outputs": [
        {
          "internalType": "uint256",
          "name": "accruedTokenAmount",
          "type": "uint256"
        }
      ],
      "stateMutability": "view",
      "type": "function"
    }
  ],
  "bytecode": "0x60806040526000805461ffff60a01b1916610c0560a01b179055600780546001600160a81b0319163060ff60a01b191617600160a01b17905534801561004457600080fd5b5061004e33610053565b6100a3565b600080546001600160a01b038381166001600160a01b0319831681178455604051919092169283917f8be0079c531659141344cd1fd0a4f28419497f9722a3daafe3b4186f6b6457e09190a35050565b610c9a806100b26000396000f3fe608060405234801561001057600080fd5b50600436106100ea5760003560e01c80638da5cb5b1161008c578063c909413c11610066578063c909413c146101ac578063e7a3ac82146101bf578063f2fde38b146101c7578063f6724a55146101da57600080fd5b80638da5cb5b14610176578063a952ae2114610191578063b18221831461019957600080fd5b806351919948116100c8578063519199481461014b57806366c83f6f1461015e578063715018a614610166578063735b19151461016e57600080fd5b806301c65e15146100ef578063234c28931461012e5780633f265d2e14610143575b600080fd5b61011b6100fd366004610b55565b6001600160a01b031660009081526009602052604090206003015490565b6040519081526020015b60405180910390f35b61014161013c366004610b7e565b6101e2565b005b61011b61027c565b610141610159366004610b7e565b6102c4565b61011b61036b565b61014161041e565b60015461011b565b6000546040516001600160a01b039091168152602001610125565b61011b610484565b61011b6101a7366004610b55565b6104f1565b61011b6101ba366004610b55565b61058b565b61011b6105c2565b6101416101d5366004610b55565b610677565b61011b610759565b6000546001600160a01b031633146102415760405162461bcd60e51b815260206004820181905260248201527f4f776e61626c653a2063616c6c6572206973206e6f7420746865206f776e657260448201526064015b60405180910390fd5b6000805460ff909216600160a01b027fffffffffffffffffffffff00ffffffffffffffffffffffffffffffffffffffff909216919091179055565b6000630faa028060015461029e600060159054906101000a900460ff166107bc565b6102a89190610bb7565b6102b29190610bd6565b6006546102bf9190610bf8565b905090565b6000546001600160a01b0316331461031e5760405162461bcd60e51b815260206004820181905260248201527f4f776e61626c653a2063616c6c6572206973206e6f7420746865206f776e65726044820152606401610238565b6000805460ff9092167501000000000000000000000000000000000000000000027fffffffffffffffffffff00ffffffffffffffffffffffffffffffffffffffffff909216919091179055565b60006103756107dc565b6007546040516370a0823160e01b8152336004820152919250630faa0280916001600160a01b03909116906370a0823190602401602060405180830381865afa1580156103c6573d6000803e3d6000fd5b505050506040513d601f19601f820116820180604052508101906103ea9190610c10565b60005461040090600160a01b900460ff166107bc565b61040a9190610bb7565b6104149190610bd6565b6102bf9082610bf8565b6000546001600160a01b031633146104785760405162461bcd60e51b815260206004820181905260248201527f4f776e61626c653a2063616c6c6572206973206e6f7420746865206f776e65726044820152606401610238565b61048260006108d8565b565b6007546040516370a0823160e01b81523360048201526000916001600160a01b0316906370a0823190602401602060405180830381865afa1580156104cd573d6000803e3d6000fd5b505050506040513d601f19601f820116820180604052508101906102bf9190610c10565b6001600160a01b038116600090815260096020908152604080832081516080810183528154815260018201549381019390935260028101549183019190915260030154606082015261054283610940565b9150630faa02808160600151610566600060159054906101000a900460ff166107bc565b6105709190610bb7565b61057a9190610bd6565b6105849083610bf8565b9392505050565b6000610596826104f1565b6001600160a01b0383166000908152600960205260409020600301546105bc9190610bf8565b92915050565b6000630faa0280600760009054906101000a90046001600160a01b03166001600160a01b03166318160ddd6040518163ffffffff1660e01b8152600401602060405180830381865afa15801561061c573d6000803e3d6000fd5b505050506040513d601f19601f820116820180604052508101906106409190610c10565b60005461065690600160a01b900460ff166107bc565b6106609190610bb7565b61066a9190610bd6565b6005546102bf9190610bf8565b6000546001600160a01b031633146106d15760405162461bcd60e51b815260206004820181905260248201527f4f776e61626c653a2063616c6c6572206973206e6f7420746865206f776e65726044820152606401610238565b6001600160a01b03811661074d5760405162461bcd60e51b815260206004820152602660248201527f4f776e61626c653a206e6577206f776e657220697320746865207a65726f206160448201527f64647265737300000000000000000000000000000000000000000000000000006064820152608401610238565b610756816108d8565b50565b600754604080517f18160ddd00000000000000000000000000000000000000000000000000000000815290516000926001600160a01b0316916318160ddd9160048083019260209291908290030181865afa1580156104cd573d6000803e3d6000fd5b600080600254436107cd9190610c29565b905061058460ff841682610bb7565b336000908152600860209081526040808320815160608101835281548152600182015493810193909352600201549082015281806108186109ec565b80602001905181019061082b9190610c40565b60408581015160075491516370a0823160e01b81523360048201529395509193509091630faa0280916001600160a01b0316906370a0823190602401602060405180830381865afa158015610884573d6000803e3d6000fd5b505050506040513d601f19601f820116820180604052508101906108a89190610c10565b6108b28585610bb7565b6108bc9190610bb7565b6108c69190610bd6565b6108d09190610bf8565b935050505090565b600080546001600160a01b038381167fffffffffffffffffffffffff0000000000000000000000000000000000000000831681178455604051919092169283917f8be0079c531659141344cd1fd0a4f28419497f9722a3daafe3b4186f6b6457e09190a35050565b6001600160a01b0381166000908152600960209081526040808320815160808101835281548152600182015493810193909352600281015491830191909152600301546060820152818061099385610a8b565b8060200190518101906109a69190610c40565b915091508260400151630faa0280846060015184846109c59190610bb7565b6109cf9190610bb7565b6109d99190610bd6565b6109e39190610bf8565b95945050505050565b336000908152600860209081526040808320815160608181018452825482526001830154948201859052600292830154938201939093529054919390929091610a359190610c29565b905060008115610a60578251600354600091610a5091610c29565b9050610a5c8382610bd6565b9150505b6040805160208101849052908101829052606001604051602081830303815290604052935050505090565b6060600060096000846001600160a01b03166001600160a01b03168152602001908152602001600020604051806080016040529081600082015481526020016001820154815260200160028201548152602001600382015481525050905060008160200151600254610afd9190610c29565b905060008115610b28578251600454600091610b1891610c29565b9050610b248382610bd6565b9150505b60408051602081018490529081018290526060016040516020818303038152906040529350505050919050565b600060208284031215610b6757600080fd5b81356001600160a01b038116811461058457600080fd5b600060208284031215610b9057600080fd5b813560ff8116811461058457600080fd5b634e487b7160e01b600052601160045260246000fd5b6000816000190483118215151615610bd157610bd1610ba1565b500290565b600082610bf357634e487b7160e01b600052601260045260246000fd5b500490565b60008219821115610c0b57610c0b610ba1565b500190565b600060208284031215610c2257600080fd5b5051919050565b600082821015610c3b57610c3b610ba1565b500390565b60008060408385031215610c5357600080fd5b50508051602090910151909290915056fea2646970667358221220e3ccf4204e3a110501a8ada377e9fc51542e50a6634dc2aa808bf0d6652d798264736f6c634300080a0033",
  "linkReferences": {},
  "deployedLinkReferences": {}
}